{
  "abi": [
    {
      "anonymous": false,
      "inputs": [
        {
          "indexed": true,
          "internalType": "address",
          "name": "tokenOwner",
          "type": "address"
        },
        {
          "indexed": true,
          "internalType": "address",
          "name": "spender",
          "type": "address"
        },
        {
          "indexed": false,
          "internalType": "uint256",
          "name": "tokens",
          "type": "uint256"
        }
      ],
      "name": "Approval",
      "type": "event"
    },
    {
      "anonymous": false,
      "inputs": [
        {
          "indexed": false,
          "internalType": "address",
          "name": "to",
          "type": "address"
        },
        {
          "indexed": false,
          "internalType": "uint256",
          "name": "value",
          "type": "uint256"
        }
      ],
      "name": "Minted",
      "type": "event"
    },
    {
      "anonymous": false,
      "inputs": [
        {
          "indexed": true,
          "internalType": "address",
          "name": "from",
          "type": "address"
        },
        {
          "indexed": true,
          "internalType": "address",
          "name": "to",
          "type": "address"
        },
        {
          "indexed": false,
          "internalType": "uint256",
          "name": "tokens",
          "type": "uint256"
        }
      ],
      "name": "Transfer",
      "type": "event"
    },
    {
      "inputs": [],
      "name": "_name",
      "outputs": [
        {
          "internalType": "string",
          "name": "",
          "type": "string"
        }
      ],
      "stateMutability": "view",
      "type": "function"
    },
    {
      "inputs": [],
      "name": "_symbol",
      "outputs": [
        {
          "internalType": "string",
          "name": "",
          "type": "string"
        }
      ],
      "stateMutability": "view",
      "type": "function"
    },
    {
      "inputs": [
        {
          "internalType": "address",
          "name": "_owner",
          "type": "address"
        },
        {
          "internalType": "address",
          "name": "_spender",
          "type": "address"
        }
      ],
      "name": "allowance",
      "outputs": [
        {
          "internalType": "uint256",
          "name": "remaining",
          "type": "uint256"
        }
      ],
      "stateMutability": "view",
      "type": "function"
    },
    {
      "inputs": [
        {
          "internalType": "address",
          "name": "_spender",
          "type": "address"
        },
        {
          "internalType": "uint256",
          "name": "_value",
          "type": "uint256"
        }
      ],
      "name": "approve",
      "outputs": [
        {
          "internalType": "bool",
          "name": "success",
          "type": "bool"
        }
      ],
      "stateMutability": "nonpayable",
      "type": "function"
    },
    {
      "inputs": [
        {
          "internalType": "address",
          "name": "account",
          "type": "address"
        }
      ],
      "name": "balanceOf",
      "outputs": [
        {
          "internalType": "uint256",
          "name": "",
          "type": "uint256"
        }
      ],
      "stateMutability": "view",
      "type": "function"
    },
    {
      "inputs": [
        {
          "internalType": "uint256",
          "name": "value",
          "type": "uint256"
        },
        {
          "internalType": "address",
          "name": "target",
          "type": "address"
        }
      ],
      "name": "burn",
      "outputs": [],
      "stateMutability": "nonpayable",
      "type": "function"
    },
    {
      "inputs": [],
      "name": "decimals",
      "outputs": [
        {
          "internalType": "uint256",
          "name": "",
          "type": "uint256"
        }
      ],
      "stateMutability": "view",
      "type": "function"
    },
    {
      "inputs": [
        {
          "internalType": "address",
          "name": "_to",
          "type": "address"
        },
        {
          "internalType": "uint256",
          "name": "value",
          "type": "uint256"
        }
      ],
      "name": "mint",
      "outputs": [],
      "stateMutability": "nonpayable",
      "type": "function"
    },
    {
      "inputs": [],
      "name": "name",
      "outputs": [
        {
          "internalType": "string",
          "name": "",
          "type": "string"
        }
      ],
      "stateMutability": "view",
      "type": "function"
    },
    {
      "inputs": [],
      "name": "symbol",
      "outputs": [
        {
          "internalType": "string",
          "name": "",
          "type": "string"
        }
      ],
      "stateMutability": "view",
      "type": "function"
    },
    {
      "inputs": [],
      "name": "totalSupply",
      "outputs": [
        {
          "internalType": "uint256",
          "name": "",
          "type": "uint256"
        }
      ],
      "stateMutability": "view",
      "type": "function"
    },
    {
      "inputs": [
        {
          "internalType": "address",
          "name": "_to",
          "type": "address"
        },
        {
          "internalType": "uint256",
          "name": "_value",
          "type": "uint256"
        }
      ],
      "name": "transfer",
      "outputs": [
        {
          "internalType": "bool",
          "name": "success",
          "type": "bool"
        }
      ],
      "stateMutability": "nonpayable",
      "type": "function"
    },
    {
      "inputs": [
        {
          "internalType": "address",
          "name": "_from",
          "type": "address"
        },
        {
          "internalType": "address",
          "name": "_to",
          "type": "address"
        },
        {
          "internalType": "uint256",
          "name": "_value",
          "type": "uint256"
        }
      ],
      "name": "transferFrom",
      "outputs": [
        {
          "internalType": "bool",
          "name": "success",
          "type": "bool"
        }
      ],
      "stateMutability": "nonpayable",
      "type": "function"
    }
  ],
  "bytecode": {
    "object": "0x60c060405260046080908152634c6d616f60e01b60a05260039062000025908262000108565b506040805180820190915260028152614c4d60f01b60208201526004906200004e908262000108565b503480156200005c57600080fd5b50620001d4565b634e487b7160e01b600052604160045260246000fd5b600181811c908216806200008e57607f821691505b602082108103620000af57634e487b7160e01b600052602260045260246000fd5b50919050565b601f8211156200010357600081815260208120601f850160051c81016020861015620000de5750805b601f850160051c820191505b81811015620000ff57828155600101620000ea565b5050505b505050565b81516001600160401b0381111562000124576200012462000063565b6200013c8162000135845462000079565b84620000b5565b602080601f8311600181146200017457600084156200015b5750858301515b600019600386901b1c1916600185901b178555620000ff565b600085815260208120601f198616915b82811015620001a55788860151825594840194600190910190840162000184565b5085821015620001c45787850151600019600388901b60f8161c191681555b5050505050600190811b01905550565b610af280620001e46000396000f3fe608060405234801561001057600080fd5b50600436106100cf5760003560e01c806370a082311161008c578063b09f126611610066578063b09f12661461019a578063d28d8852146101a2578063dd62ed3e146101aa578063fcd3533c146101bd57600080fd5b806370a082311461015657806395d89b411461017f578063a9059cbb1461018757600080fd5b806306fdde03146100d4578063095ea7b3146100f257806318160ddd1461011557806323b872dd14610127578063313ce5671461013a57806340c10f1914610141575b600080fd5b6100dc6101d0565b6040516100e99190610855565b60405180910390f35b6101056101003660046108bf565b610262565b60405190151581526020016100e9565b6002545b6040519081526020016100e9565b6101056101353660046108e9565b6102c4565b6012610119565b61015461014f3660046108bf565b6104b6565b005b610119610164366004610925565b6001600160a01b031660009081526020819052604090205490565b6100dc6105a2565b6101056101953660046108bf565b6105b1565b6100dc6106db565b6100dc610769565b6101196101b8366004610947565b610776565b6101546101cb36600461097a565b6107a3565b6060600380546101df9061099d565b80601f016020809104026020016040519081016040528092919081815260200182805461020b9061099d565b80156102585780601f1061022d57610100808354040283529160200191610258565b820191906000526020600020905b81548152906001019060200180831161023b57829003601f168201915b5050505050905090565b3360008181526001602081815260408084206001600160a01b03881680865290835293819020869055518581529193917f8c5be1e5ebec7d5bd14f71427d1e84f3dd0314c0f7b2291e5b200ac8c7c3b92591015b60405180910390a392915050565b60006001600160a01b0383166102f55760405162461bcd60e51b81526004016102ec906109d7565b60405180910390fd5b600082116103365760405162461bcd60e51b815260206004820152600e60248201526d696e6372656173652076616c756560901b60448201526064016102ec565b81610356856001600160a01b031660009081526020819052604090205490565b10156103745760405162461bcd60e51b81526004016102ec90610a1b565b8161037f8585610776565b11156103c65760405162461bcd60e51b8152602060048201526016602482015275696e73756666696369656e7420616c6c6f77616e636560501b60448201526064016102ec565b6001600160a01b038085166000908152600160209081526040808320938716835292905290812080548492906103fd908490610a5d565b90915550506001600160a01b0384166000908152602081905260408120805484929061042a908490610a5d565b90915550506001600160a01b03831660009081526020819052604081208054849290610457908490610a70565b9250508190555060019050826001600160a01b0316846001600160a01b03167fddf252ad1be2c89b69c2b068fc378daa952ba7f163c4a11628f55a4df523b3ef846040516104a791815260200190565b60405180910390a39392505050565b6001600160a01b0382166105185760405162461bcd60e51b8152602060048201526024808201527f747261736e66657220746f2061646472657373205a65726f206e6f7420616c6c6044820152631bddd95960e21b60648201526084016102ec565b806002600082825461052a9190610a70565b90915550506001600160a01b03821660009081526020819052604081208054839290610557908490610a70565b9091555050604080516001600160a01b0384168152602081018390527f30385c845b448a36257a6a1716e6ad2e1bc2cbe333cde1e69fe849ad6511adfe910160405180910390a15050565b6060600480546101df9061099d565b60006001600160a01b0383166105d95760405162461bcd60e51b81526004016102ec906109d7565b6000821161061a5760405162461bcd60e51b815260206004820152600e60248201526d696e6372656173652076616c756560901b60448201526064016102ec565b336000908152602081905260409020548211156106495760405162461bcd60e51b81526004016102ec90610a1b565b3360009081526020819052604081208054849290610668908490610a5d565b90915550506001600160a01b03831660009081526020819052604081208054849290610695908490610a70565b9091555050604051828152600191506001600160a01b0384169033907fddf252ad1be2c89b69c2b068fc378daa952ba7f163c4a11628f55a4df523b3ef906020016102b6565b600480546106e89061099d565b80601f01602080910402602001604051908101604052809291908181526020018280546107149061099d565b80156107615780601f1061073657610100808354040283529160200191610761565b820191906000526020600020905b81548152906001019060200180831161074457829003601f168201915b505050505081565b600380546106e89061099d565b6001600160a01b038083166000908152600160209081526040808320938516835292905220545b92915050565b336000908152602081905260409020548211156107d25760405162461bcd60e51b81526004016102ec90610a1b565b33600090815260208190526040812080548492906107f1908490610a5d565b9091555060009050606461080684605a610a83565b6108109190610a9a565b905080600260008282546108249190610a5d565b9091555061083490508184610a5d565b6001600160a01b039092166000908152602081905260409020919091555050565b600060208083528351808285015260005b8181101561088257858101830151858201604001528201610866565b506000604082860101526040601f19601f8301168501019250505092915050565b80356001600160a01b03811681146108ba57600080fd5b919050565b600080604083850312156108d257600080fd5b6108db836108a3565b946020939093013593505050565b6000806000606084860312156108fe57600080fd5b610907846108a3565b9250610915602085016108a3565b9150604084013590509250925092565b60006020828403121561093757600080fd5b610940826108a3565b9392505050565b6000806040838503121561095a57600080fd5b610963836108a3565b9150610971602084016108a3565b90509250929050565b6000806040838503121561098d57600080fd5b82359150610971602084016108a3565b600181811c908216806109b157607f821691505b6020821081036109d157634e487b7160e01b600052602260045260246000fd5b50919050565b60208082526024908201527f7472616e7366657220746f2061646472657373205a65726f206e6f7420616c6c6040820152631bddd95960e21b606082015260800190565b602080825260129082015271696e73756666696369656e742066756e647360701b604082015260600190565b634e487b7160e01b600052601160045260246000fd5b8181038181111561079d5761079d610a47565b8082018082111561079d5761079d610a47565b808202811582820484141761079d5761079d610a47565b600082610ab757634e487b7160e01b600052601260045260246000fd5b50049056fea2646970667358221220d5b33260ad93955696d7f5d40a053053bc0c99cf8e33cbd49e7b7caa0312c25964736f6c63430008130033",
    "linkReferences": {}
  },
  "methodIdentifiers": {
    "_name()": "d28d8852",
    "_symbol()": "b09f1266",
    "allowance(address,address)": "dd62ed3e",
    "approve(address,uint256)": "095ea7b3",
    "balanceOf(address)": "70a08231",
    "burn(uint256,address)": "fcd3533c",
    "decimals()": "313ce567",
    "mint(address,uint256)": "40c10f19",
    "name()": "06fdde03",
    "symbol()": "95d89b41",
    "totalSupply()": "18160ddd",
    "transfer(address,uint256)": "a9059cbb",
    "transferFrom(address,address,uint256)": "23b872dd"
  },
  "id": 2
}